{
  "_format": "hh-sol-artifact-1",
  "contractName": "MyFirstContract",
  "sourceName": "contracts/MyFirstContract.sol",
  "abi": [
    {
      "inputs": [],
      "stateMutability": "payable",
      "type": "constructor"
    },
    {
      "anonymous": false,
      "inputs": [
        {
          "indexed": true,
          "internalType": "address",
          "name": "voter",
          "type": "address"
        },
        {
          "indexed": false,
          "internalType": "uint256",
          "name": "proposalId",
          "type": "uint256"
        },
        {
          "indexed": false,
          "internalType": "string",
          "name": "message",
          "type": "string"
        },
        {
          "indexed": false,
          "internalType": "uint256",
          "name": "timestamp",
          "type": "uint256"
        }
      ],
      "name": "newVote",
      "type": "event"
    },
    {
      "inputs": [],
      "name": "getTotalVotes",
      "outputs": [
        {
          "internalType": "uint256",
          "name": "",
          "type": "uint256"
        }
      ],
      "stateMutability": "view",
      "type": "function"
    },
    {
      "inputs": [],
      "name": "getVotes",
      "outputs": [
        {
          "components": [
            {
              "internalType": "address",
              "name": "voter",
              "type": "address"
            },
            {
              "internalType": "uint256",
              "name": "proposalId",
              "type": "uint256"
            },
            {
              "internalType": "string",
              "name": "message",
              "type": "string"
            },
            {
              "internalType": "uint256",
              "name": "timestamp",
              "type": "uint256"
            }
          ],
          "internalType": "struct MyFirstContract.Vote[]",
          "name": "",
          "type": "tuple[]"
        }
      ],
      "stateMutability": "view",
      "type": "function"
    },
    {
      "inputs": [
        {
          "internalType": "uint256",
          "name": "_proposalId",
          "type": "uint256"
        },
        {
          "internalType": "string",
          "name": "_message",
          "type": "string"
        }
      ],
      "name": "vote",
      "outputs": [],
      "stateMutability": "nonpayable",
      "type": "function"
    }
  ],
  "bytecode": "0x60806040526200004f6040518060400160405280602081526020017f566f74696e6720436f6e747261637420676f7420696e697469616c697a6564218152506200007760201b620005261760201c565b606444426200005f9190620001c4565b6200006b919062000261565b60018190555062000308565b62000117816040516024016200008e919062000184565b6040516020818303038152906040527f41304fac000000000000000000000000000000000000000000000000000000007bffffffffffffffffffffffffffffffffffffffffffffffffffffffff19166020820180517bffffffffffffffffffffffffffffffffffffffffffffffffffffffff83818316178352505050506200011a60201b60201c565b50565b60008151905060006a636f6e736f6c652e6c6f679050602083016000808483855afa5050505050565b60006200015082620001a8565b6200015c8185620001b3565b93506200016e8185602086016200022b565b6200017981620002f7565b840191505092915050565b60006020820190508181036000830152620001a0818462000143565b905092915050565b600081519050919050565b600082825260208201905092915050565b6000620001d18262000221565b9150620001de8362000221565b9250827fffffffffffffffffffffffffffffffffffffffffffffffffffffffffffffffff0382111562000216576200021562000299565b5b828201905092915050565b6000819050919050565b60005b838110156200024b5780820151818401526020810190506200022e565b838111156200025b576000848401525b50505050565b60006200026e8262000221565b91506200027b8362000221565b9250826200028e576200028d620002c8565b5b828206905092915050565b7f4e487b7100000000000000000000000000000000000000000000000000000000600052601160045260246000fd5b7f4e487b7100000000000000000000000000000000000000000000000000000000600052601260045260246000fd5b6000601f19601f8301169050919050565b61102980620003186000396000f3fe608060405234801561001057600080fd5b50600436106100415760003560e01c80630dc960151461004657806324108475146100645780639a0e7d6614610080575b600080fd5b61004e61009e565b60405161005b9190610ab2565b60405180910390f35b61007e60048036038101906100799190610846565b6101f9565b005b6100886104db565b6040516100959190610bb9565b60405180910390f35b60606002805480602002602001604051908101604052809291908181526020016000905b828210156101f057838290600052602060002090600402016040518060800160405290816000820160009054906101000a900473ffffffffffffffffffffffffffffffffffffffff1673ffffffffffffffffffffffffffffffffffffffff1673ffffffffffffffffffffffffffffffffffffffff1681526020016001820154815260200160028201805461015590610dad565b80601f016020809104026020016040519081016040528092919081815260200182805461018190610dad565b80156101ce5780601f106101a3576101008083540402835291602001916101ce565b820191906000526020600020905b8154815290600101906020018083116101b157829003601f168201915b50505050508152602001600382015481525050815260200190600101906100c2565b50505050905090565b600160008082825461020b9190610cd9565b925050819055506102366040518060600160405280602d8152602001610fc7602d91393384846105bf565b600260405180608001604052803373ffffffffffffffffffffffffffffffffffffffff16815260200184815260200183815260200142815250908060018154018082558091505060019003906000526020600020906004020160009091909190915060008201518160000160006101000a81548173ffffffffffffffffffffffffffffffffffffffff021916908373ffffffffffffffffffffffffffffffffffffffff160217905550602082015181600101556040820151816002019080519060200190610305929190610726565b50606082015181600301555050606460015442446103239190610cd9565b61032d9190610cd9565b6103379190610e10565b60018190555061037e6040518060400160405280601681526020017f52616e646f6d20232067656e6572617465643a20256400000000000000000000815250600154610661565b603260015411610485576000655af3107a40009050478111156103d6576040517f08c379a00000000000000000000000000000000000000000000000000000000081526004016103cd90610b79565b60405180910390fd5b60003373ffffffffffffffffffffffffffffffffffffffff16826040516103fc90610a9d565b60006040518083038185875af1925050503d8060008114610439576040519150601f19603f3d011682016040523d82523d6000602084013e61043e565b606091505b5050905080610482576040517f08c379a000000000000000000000000000000000000000000000000000000000815260040161047990610b99565b60405180910390fd5b50505b3373ffffffffffffffffffffffffffffffffffffffff167f27598a273ec3efbd64f7ad111a6558f1c675c58ad0271c0824b316d5c31aab388383426040516104cf93929190610bd4565b60405180910390a25050565b600061051e6040518060400160405280601781526020017f5765206861766520256420746f74616c20766f74657321000000000000000000815250600054610661565b600054905090565b6105bc8160405160240161053a9190610ad4565b6040516020818303038152906040527f41304fac000000000000000000000000000000000000000000000000000000007bffffffffffffffffffffffffffffffffffffffffffffffffffffffff19166020820180517bffffffffffffffffffffffffffffffffffffffffffffffffffffffff83818316178352505050506106fd565b50565b61065b848484846040516024016105d99493929190610af6565b6040516020818303038152906040527f4c55f234000000000000000000000000000000000000000000000000000000007bffffffffffffffffffffffffffffffffffffffffffffffffffffffff19166020820180517bffffffffffffffffffffffffffffffffffffffffffffffffffffffff83818316178352505050506106fd565b50505050565b6106f98282604051602401610677929190610b49565b6040516020818303038152906040527f9710a9d0000000000000000000000000000000000000000000000000000000007bffffffffffffffffffffffffffffffffffffffffffffffffffffffff19166020820180517bffffffffffffffffffffffffffffffffffffffffffffffffffffffff83818316178352505050506106fd565b5050565b60008151905060006a636f6e736f6c652e6c6f679050602083016000808483855afa5050505050565b82805461073290610dad565b90600052602060002090601f016020900481019282610754576000855561079b565b82601f1061076d57805160ff191683800117855561079b565b8280016001018555821561079b579182015b8281111561079a57825182559160200191906001019061077f565b5b5090506107a891906107ac565b5090565b5b808211156107c55760008160009055506001016107ad565b5090565b60006107dc6107d784610c37565b610c12565b9050828152602081018484840111156107f457600080fd5b6107ff848285610d6b565b509392505050565b600082601f83011261081857600080fd5b81356108288482602086016107c9565b91505092915050565b60008135905061084081610faf565b92915050565b6000806040838503121561085957600080fd5b600061086785828601610831565b925050602083013567ffffffffffffffff81111561088457600080fd5b61089085828601610807565b9150509250929050565b60006108a68383610a1c565b905092915050565b6108b781610d2f565b82525050565b6108c681610d2f565b82525050565b60006108d782610c78565b6108e18185610c9b565b9350836020820285016108f385610c68565b8060005b8581101561092f5784840389528151610910858261089a565b945061091b83610c8e565b925060208a019950506001810190506108f7565b50829750879550505050505092915050565b600061094c82610c83565b6109568185610cb7565b9350610966818560208601610d7a565b61096f81610efd565b840191505092915050565b600061098582610c83565b61098f8185610cc8565b935061099f818560208601610d7a565b6109a881610efd565b840191505092915050565b60006109c0603483610cc8565b91506109cb82610f0e565b604082019050919050565b60006109e3602783610cc8565b91506109ee82610f5d565b604082019050919050565b6000610a06600083610cac565b9150610a1182610fac565b600082019050919050565b6000608083016000830151610a3460008601826108ae565b506020830151610a476020860182610a7f565b5060408301518482036040860152610a5f8282610941565b9150506060830151610a746060860182610a7f565b508091505092915050565b610a8881610d61565b82525050565b610a9781610d61565b82525050565b6000610aa8826109f9565b9150819050919050565b60006020820190508181036000830152610acc81846108cc565b905092915050565b60006020820190508181036000830152610aee818461097a565b905092915050565b60006080820190508181036000830152610b10818761097a565b9050610b1f60208301866108bd565b610b2c6040830185610a8e565b8181036060830152610b3e818461097a565b905095945050505050565b60006040820190508181036000830152610b63818561097a565b9050610b726020830184610a8e565b9392505050565b60006020820190508181036000830152610b92816109b3565b9050919050565b60006020820190508181036000830152610bb2816109d6565b9050919050565b6000602082019050610bce6000830184610a8e565b92915050565b6000606082019050610be96000830186610a8e565b8181036020830152610bfb818561097a565b9050610c0a6040830184610a8e565b949350505050565b6000610c1c610c2d565b9050610c288282610ddf565b919050565b6000604051905090565b600067ffffffffffffffff821115610c5257610c51610ece565b5b610c5b82610efd565b9050602081019050919050565b6000819050602082019050919050565b600081519050919050565b600081519050919050565b6000602082019050919050565b600082825260208201905092915050565b600081905092915050565b600082825260208201905092915050565b600082825260208201905092915050565b6000610ce482610d61565b9150610cef83610d61565b9250827fffffffffffffffffffffffffffffffffffffffffffffffffffffffffffffffff03821115610d2457610d23610e41565b5b828201905092915050565b6000610d3a82610d41565b9050919050565b600073ffffffffffffffffffffffffffffffffffffffff82169050919050565b6000819050919050565b82818337600083830152505050565b60005b83811015610d98578082015181840152602081019050610d7d565b83811115610da7576000848401525b50505050565b60006002820490506001821680610dc557607f821691505b60208210811415610dd957610dd8610e9f565b5b50919050565b610de882610efd565b810181811067ffffffffffffffff82111715610e0757610e06610ece565b5b80604052505050565b6000610e1b82610d61565b9150610e2683610d61565b925082610e3657610e35610e70565b5b828206905092915050565b7f4e487b7100000000000000000000000000000000000000000000000000000000600052601160045260246000fd5b7f4e487b7100000000000000000000000000000000000000000000000000000000600052601260045260246000fd5b7f4e487b7100000000000000000000000000000000000000000000000000000000600052602260045260246000fd5b7f4e487b7100000000000000000000000000000000000000000000000000000000600052604160045260246000fd5b6000601f19601f8301169050919050565b7f547279696e6720746f207769746864726177206d6f7265206d6f6e657920746860008201527f616e2074686520636f6e7472616374206861732e000000000000000000000000602082015250565b7f4661696c656420746f207769746864726177206d6f6e65792066726f6d20636f60008201527f6e74726163742e00000000000000000000000000000000000000000000000000602082015250565b50565b610fb881610d61565b8114610fc357600080fd5b5056fe25732068617320766f74656420666f722070726f706f73616c2025732077697468206d6573736167652025732ea264697066735822122033fd86604651e3461eaefab31c16e72c5331c663fd7357b94f85c900f8ef770064736f6c63430008040033",
  "linkReferences": {},
  "deployedLinkReferences": {}
}