{
  "_format": "hh-sol-artifact-1",
  "contractName": "MyFirstContract",
  "sourceName": "contracts/MyFirstContract.sol",
  "abi": [
    {
      "inputs": [],
      "stateMutability": "nonpayable",
      "type": "constructor"
    },
    {
      "anonymous": false,
      "inputs": [
        {
          "indexed": true,
          "internalType": "address",
          "name": "voter",
          "type": "address"
        },
        {
          "indexed": false,
          "internalType": "uint256",
          "name": "proposalId",
          "type": "uint256"
        },
        {
          "indexed": false,
          "internalType": "string",
          "name": "message",
          "type": "string"
        },
        {
          "indexed": false,
          "internalType": "uint256",
          "name": "timestamp",
          "type": "uint256"
        }
      ],
      "name": "newVote",
      "type": "event"
    },
    {
      "inputs": [],
      "name": "getTotalVotes",
      "outputs": [
        {
          "internalType": "uint256",
          "name": "",
          "type": "uint256"
        }
      ],
      "stateMutability": "view",
      "type": "function"
    },
    {
      "inputs": [],
      "name": "getVotes",
      "outputs": [
        {
          "components": [
            {
              "internalType": "address",
              "name": "voter",
              "type": "address"
            },
            {
              "internalType": "uint256",
              "name": "proposalId",
              "type": "uint256"
            },
            {
              "internalType": "string",
              "name": "message",
              "type": "string"
            },
            {
              "internalType": "uint256",
              "name": "timestamp",
              "type": "uint256"
            }
          ],
          "internalType": "struct MyFirstContract.Vote[]",
          "name": "",
          "type": "tuple[]"
        }
      ],
      "stateMutability": "view",
      "type": "function"
    },
    {
      "inputs": [
        {
          "internalType": "uint256",
          "name": "_proposalId",
          "type": "uint256"
        },
        {
          "internalType": "string",
          "name": "_message",
          "type": "string"
        }
      ],
      "name": "vote",
      "outputs": [],
      "stateMutability": "nonpayable",
      "type": "function"
    }
  ],
  "bytecode": "0x60806040523480156200001157600080fd5b506200005d6040518060400160405280602081526020017f566f74696e6720436f6e747261637420676f7420696e697469616c697a6564218152506200006360201b620003b31760201c565b620001f7565b62000103816040516024016200007a919062000170565b6040516020818303038152906040527f41304fac000000000000000000000000000000000000000000000000000000007bffffffffffffffffffffffffffffffffffffffffffffffffffffffff19166020820180517bffffffffffffffffffffffffffffffffffffffffffffffffffffffff83818316178352505050506200010660201b60201c565b50565b60008151905060006a636f6e736f6c652e6c6f679050602083016000808483855afa5050505050565b60006200013c8262000194565b6200014881856200019f565b93506200015a818560208601620001b0565b6200016581620001e6565b840191505092915050565b600060208201905081810360008301526200018c81846200012f565b905092915050565b600081519050919050565b600082825260208201905092915050565b60005b83811015620001d0578082015181840152602081019050620001b3565b83811115620001e0576000848401525b50505050565b6000601f19601f8301169050919050565b610cec80620002076000396000f3fe608060405234801561001057600080fd5b50600436106100415760003560e01c80630dc960151461004657806324108475146100645780639a0e7d6614610080575b600080fd5b61004e61009e565b60405161005b91906108c1565b60405180910390f35b61007e600480360381019061007991906106d3565b6101f9565b005b610088610368565b6040516100959190610988565b60405180910390f35b60606001805480602002602001604051908101604052809291908181526020016000905b828210156101f057838290600052602060002090600402016040518060800160405290816000820160009054906101000a900473ffffffffffffffffffffffffffffffffffffffff1673ffffffffffffffffffffffffffffffffffffffff1673ffffffffffffffffffffffffffffffffffffffff1681526020016001820154815260200160028201805461015590610b71565b80601f016020809104026020016040519081016040528092919081815260200182805461018190610b71565b80156101ce5780601f106101a3576101008083540402835291602001916101ce565b820191906000526020600020905b8154815290600101906020018083116101b157829003601f168201915b50505050508152602001600382015481525050815260200190600101906100c2565b50505050905090565b600160008082825461020b9190610a9d565b925050819055506102366040518060600160405280602d8152602001610c8a602d913933848461044c565b600160405180608001604052803373ffffffffffffffffffffffffffffffffffffffff16815260200184815260200183815260200142815250908060018154018082558091505060019003906000526020600020906004020160009091909190915060008201518160000160006101000a81548173ffffffffffffffffffffffffffffffffffffffff021916908373ffffffffffffffffffffffffffffffffffffffff1602179055506020820151816001015560408201518160020190805190602001906103059291906105b3565b506060820151816003015550503373ffffffffffffffffffffffffffffffffffffffff167f27598a273ec3efbd64f7ad111a6558f1c675c58ad0271c0824b316d5c31aab3883834260405161035c939291906109a3565b60405180910390a25050565b60006103ab6040518060400160405280601781526020017f5765206861766520256420746f74616c20766f746573210000000000000000008152506000546104ee565b600054905090565b610449816040516024016103c791906108e3565b6040516020818303038152906040527f41304fac000000000000000000000000000000000000000000000000000000007bffffffffffffffffffffffffffffffffffffffffffffffffffffffff19166020820180517bffffffffffffffffffffffffffffffffffffffffffffffffffffffff838183161783525050505061058a565b50565b6104e8848484846040516024016104669493929190610905565b6040516020818303038152906040527f4c55f234000000000000000000000000000000000000000000000000000000007bffffffffffffffffffffffffffffffffffffffffffffffffffffffff19166020820180517bffffffffffffffffffffffffffffffffffffffffffffffffffffffff838183161783525050505061058a565b50505050565b6105868282604051602401610504929190610958565b6040516020818303038152906040527f9710a9d0000000000000000000000000000000000000000000000000000000007bffffffffffffffffffffffffffffffffffffffffffffffffffffffff19166020820180517bffffffffffffffffffffffffffffffffffffffffffffffffffffffff838183161783525050505061058a565b5050565b60008151905060006a636f6e736f6c652e6c6f679050602083016000808483855afa5050505050565b8280546105bf90610b71565b90600052602060002090601f0160209004810192826105e15760008555610628565b82601f106105fa57805160ff1916838001178555610628565b82800160010185558215610628579182015b8281111561062757825182559160200191906001019061060c565b5b5090506106359190610639565b5090565b5b8082111561065257600081600090555060010161063a565b5090565b600061066961066484610a06565b6109e1565b90508281526020810184848401111561068157600080fd5b61068c848285610b2f565b509392505050565b600082601f8301126106a557600080fd5b81356106b5848260208601610656565b91505092915050565b6000813590506106cd81610c72565b92915050565b600080604083850312156106e657600080fd5b60006106f4858286016106be565b925050602083013567ffffffffffffffff81111561071157600080fd5b61071d85828601610694565b9150509250929050565b60006107338383610840565b905092915050565b61074481610af3565b82525050565b61075381610af3565b82525050565b600061076482610a47565b61076e8185610a6a565b93508360208202850161078085610a37565b8060005b858110156107bc578484038952815161079d8582610727565b94506107a883610a5d565b925060208a01995050600181019050610784565b50829750879550505050505092915050565b60006107d982610a52565b6107e38185610a7b565b93506107f3818560208601610b3e565b6107fc81610c61565b840191505092915050565b600061081282610a52565b61081c8185610a8c565b935061082c818560208601610b3e565b61083581610c61565b840191505092915050565b6000608083016000830151610858600086018261073b565b50602083015161086b60208601826108a3565b506040830151848203604086015261088382826107ce565b915050606083015161089860608601826108a3565b508091505092915050565b6108ac81610b25565b82525050565b6108bb81610b25565b82525050565b600060208201905081810360008301526108db8184610759565b905092915050565b600060208201905081810360008301526108fd8184610807565b905092915050565b6000608082019050818103600083015261091f8187610807565b905061092e602083018661074a565b61093b60408301856108b2565b818103606083015261094d8184610807565b905095945050505050565b600060408201905081810360008301526109728185610807565b905061098160208301846108b2565b9392505050565b600060208201905061099d60008301846108b2565b92915050565b60006060820190506109b860008301866108b2565b81810360208301526109ca8185610807565b90506109d960408301846108b2565b949350505050565b60006109eb6109fc565b90506109f78282610ba3565b919050565b6000604051905090565b600067ffffffffffffffff821115610a2157610a20610c32565b5b610a2a82610c61565b9050602081019050919050565b6000819050602082019050919050565b600081519050919050565b600081519050919050565b6000602082019050919050565b600082825260208201905092915050565b600082825260208201905092915050565b600082825260208201905092915050565b6000610aa882610b25565b9150610ab383610b25565b9250827fffffffffffffffffffffffffffffffffffffffffffffffffffffffffffffffff03821115610ae857610ae7610bd4565b5b828201905092915050565b6000610afe82610b05565b9050919050565b600073ffffffffffffffffffffffffffffffffffffffff82169050919050565b6000819050919050565b82818337600083830152505050565b60005b83811015610b5c578082015181840152602081019050610b41565b83811115610b6b576000848401525b50505050565b60006002820490506001821680610b8957607f821691505b60208210811415610b9d57610b9c610c03565b5b50919050565b610bac82610c61565b810181811067ffffffffffffffff82111715610bcb57610bca610c32565b5b80604052505050565b7f4e487b7100000000000000000000000000000000000000000000000000000000600052601160045260246000fd5b7f4e487b7100000000000000000000000000000000000000000000000000000000600052602260045260246000fd5b7f4e487b7100000000000000000000000000000000000000000000000000000000600052604160045260246000fd5b6000601f19601f8301169050919050565b610c7b81610b25565b8114610c8657600080fd5b5056fe25732068617320766f74656420666f722070726f706f73616c2025732077697468206d6573736167652025732ea2646970667358221220be9e3bc29c62a940c4331cbef2fc186924059475ed2b57de9c2b520276512c3964736f6c63430008040033",
  "linkReferences": {},
  "deployedLinkReferences": {}
}